{
  "_format": "hh-sol-artifact-1",
  "contractName": "FantasticBeastsNFT",
  "sourceName": "contracts/FantasticBeastsNFT.sol",
  "abi": [
    {
      "inputs": [],
      "stateMutability": "nonpayable",
      "type": "constructor"
    },
    {
      "anonymous": false,
      "inputs": [
        {
          "indexed": true,
          "internalType": "address",
          "name": "owner",
          "type": "address"
        },
        {
          "indexed": true,
          "internalType": "address",
          "name": "approved",
          "type": "address"
        },
        {
          "indexed": true,
          "internalType": "uint256",
          "name": "tokenId",
          "type": "uint256"
        }
      ],
      "name": "Approval",
      "type": "event"
    },
    {
      "anonymous": false,
      "inputs": [
        {
          "indexed": true,
          "internalType": "address",
          "name": "owner",
          "type": "address"
        },
        {
          "indexed": true,
          "internalType": "address",
          "name": "operator",
          "type": "address"
        },
        {
          "indexed": false,
          "internalType": "bool",
          "name": "approved",
          "type": "bool"
        }
      ],
      "name": "ApprovalForAll",
      "type": "event"
    },
    {
      "anonymous": false,
      "inputs": [
        {
          "indexed": true,
          "internalType": "address",
          "name": "previousOwner",
          "type": "address"
        },
        {
          "indexed": true,
          "internalType": "address",
          "name": "newOwner",
          "type": "address"
        }
      ],
      "name": "OwnershipTransferred",
      "type": "event"
    },
    {
      "anonymous": false,
      "inputs": [
        {
          "indexed": true,
          "internalType": "address",
          "name": "from",
          "type": "address"
        },
        {
          "indexed": true,
          "internalType": "address",
          "name": "to",
          "type": "address"
        },
        {
          "indexed": true,
          "internalType": "uint256",
          "name": "tokenId",
          "type": "uint256"
        }
      ],
      "name": "Transfer",
      "type": "event"
    },
    {
      "inputs": [
        {
          "internalType": "address",
          "name": "to",
          "type": "address"
        },
        {
          "internalType": "uint256",
          "name": "tokenId",
          "type": "uint256"
        }
      ],
      "name": "approve",
      "outputs": [],
      "stateMutability": "nonpayable",
      "type": "function"
    },
    {
      "inputs": [
        {
          "internalType": "address",
          "name": "owner",
          "type": "address"
        }
      ],
      "name": "balanceOf",
      "outputs": [
        {
          "internalType": "uint256",
          "name": "",
          "type": "uint256"
        }
      ],
      "stateMutability": "view",
      "type": "function"
    },
    {
      "inputs": [],
      "name": "collectionName",
      "outputs": [
        {
          "internalType": "string",
          "name": "",
          "type": "string"
        }
      ],
      "stateMutability": "view",
      "type": "function"
    },
    {
      "inputs": [],
      "name": "collectionSymbol",
      "outputs": [
        {
          "internalType": "string",
          "name": "",
          "type": "string"
        }
      ],
      "stateMutability": "view",
      "type": "function"
    },
    {
      "inputs": [
        {
          "internalType": "uint256",
          "name": "tokenId",
          "type": "uint256"
        }
      ],
      "name": "getApproved",
      "outputs": [
        {
          "internalType": "address",
          "name": "",
          "type": "address"
        }
      ],
      "stateMutability": "view",
      "type": "function"
    },
    {
      "inputs": [],
      "name": "getBeastsOfOwner",
      "outputs": [
        {
          "internalType": "uint256[]",
          "name": "",
          "type": "uint256[]"
        }
      ],
      "stateMutability": "view",
      "type": "function"
    },
    {
      "inputs": [
        {
          "internalType": "address",
          "name": "owner",
          "type": "address"
        },
        {
          "internalType": "address",
          "name": "operator",
          "type": "address"
        }
      ],
      "name": "isApprovedForAll",
      "outputs": [
        {
          "internalType": "bool",
          "name": "",
          "type": "bool"
        }
      ],
      "stateMutability": "view",
      "type": "function"
    },
    {
      "inputs": [],
      "name": "mint",
      "outputs": [
        {
          "internalType": "uint256",
          "name": "",
          "type": "uint256"
        }
      ],
      "stateMutability": "payable",
      "type": "function"
    },
    {
      "inputs": [],
      "name": "name",
      "outputs": [
        {
          "internalType": "string",
          "name": "",
          "type": "string"
        }
      ],
      "stateMutability": "view",
      "type": "function"
    },
    {
      "inputs": [],
      "name": "owner",
      "outputs": [
        {
          "internalType": "address",
          "name": "",
          "type": "address"
        }
      ],
      "stateMutability": "view",
      "type": "function"
    },
    {
      "inputs": [
        {
          "internalType": "uint256",
          "name": "tokenId",
          "type": "uint256"
        }
      ],
      "name": "ownerOf",
      "outputs": [
        {
          "internalType": "address",
          "name": "",
          "type": "address"
        }
      ],
      "stateMutability": "view",
      "type": "function"
    },
    {
      "inputs": [
        {
          "internalType": "uint256",
          "name": "tokenId",
          "type": "uint256"
        }
      ],
      "name": "pickFirstWord",
      "outputs": [
        {
          "internalType": "string",
          "name": "",
          "type": "string"
        }
      ],
      "stateMutability": "view",
      "type": "function"
    },
    {
      "inputs": [
        {
          "internalType": "uint256",
          "name": "tokenId",
          "type": "uint256"
        }
      ],
      "name": "pickSecondWord",
      "outputs": [
        {
          "internalType": "string",
          "name": "",
          "type": "string"
        }
      ],
      "stateMutability": "view",
      "type": "function"
    },
    {
      "inputs": [
        {
          "internalType": "uint256",
          "name": "tokenId",
          "type": "uint256"
        }
      ],
      "name": "pickThirdWord",
      "outputs": [
        {
          "internalType": "string",
          "name": "",
          "type": "string"
        }
      ],
      "stateMutability": "view",
      "type": "function"
    },
    {
      "inputs": [],
      "name": "price",
      "outputs": [
        {
          "internalType": "uint256",
          "name": "",
          "type": "uint256"
        }
      ],
      "stateMutability": "view",
      "type": "function"
    },
    {
      "inputs": [],
      "name": "renounceOwnership",
      "outputs": [],
      "stateMutability": "nonpayable",
      "type": "function"
    },
    {
      "inputs": [
        {
          "internalType": "address",
          "name": "from",
          "type": "address"
        },
        {
          "internalType": "address",
          "name": "to",
          "type": "address"
        },
        {
          "internalType": "uint256",
          "name": "tokenId",
          "type": "uint256"
        }
      ],
      "name": "safeTransferFrom",
      "outputs": [],
      "stateMutability": "nonpayable",
      "type": "function"
    },
    {
      "inputs": [
        {
          "internalType": "address",
          "name": "from",
          "type": "address"
        },
        {
          "internalType": "address",
          "name": "to",
          "type": "address"
        },
        {
          "internalType": "uint256",
          "name": "tokenId",
          "type": "uint256"
        },
        {
          "internalType": "bytes",
          "name": "_data",
          "type": "bytes"
        }
      ],
      "name": "safeTransferFrom",
      "outputs": [],
      "stateMutability": "nonpayable",
      "type": "function"
    },
    {
      "inputs": [
        {
          "internalType": "address",
          "name": "operator",
          "type": "address"
        },
        {
          "internalType": "bool",
          "name": "approved",
          "type": "bool"
        }
      ],
      "name": "setApprovalForAll",
      "outputs": [],
      "stateMutability": "nonpayable",
      "type": "function"
    },
    {
      "inputs": [
        {
          "internalType": "uint256",
          "name": "_price",
          "type": "uint256"
        }
      ],
      "name": "setPrice",
      "outputs": [],
      "stateMutability": "nonpayable",
      "type": "function"
    },
    {
      "inputs": [
        {
          "internalType": "bytes4",
          "name": "interfaceId",
          "type": "bytes4"
        }
      ],
      "name": "supportsInterface",
      "outputs": [
        {
          "internalType": "bool",
          "name": "",
          "type": "bool"
        }
      ],
      "stateMutability": "view",
      "type": "function"
    },
    {
      "inputs": [],
      "name": "symbol",
      "outputs": [
        {
          "internalType": "string",
          "name": "",
          "type": "string"
        }
      ],
      "stateMutability": "view",
      "type": "function"
    },
    {
      "inputs": [
        {
          "internalType": "uint256",
          "name": "_id",
          "type": "uint256"
        }
      ],
      "name": "tokenURI",
      "outputs": [
        {
          "internalType": "string",
          "name": "",
          "type": "string"
        }
      ],
      "stateMutability": "view",
      "type": "function"
    },
    {
      "inputs": [
        {
          "internalType": "address",
          "name": "from",
          "type": "address"
        },
        {
          "internalType": "address",
          "name": "to",
          "type": "address"
        },
        {
          "internalType": "uint256",
          "name": "tokenId",
          "type": "uint256"
        }
      ],
      "name": "transferFrom",
      "outputs": [],
      "stateMutability": "nonpayable",
      "type": "function"
    },
    {
      "inputs": [
        {
          "internalType": "address",
          "name": "newOwner",
          "type": "address"
        }
      ],
      "name": "transferOwnership",
      "outputs": [],
      "stateMutability": "nonpayable",
      "type": "function"
    }
  ],
  "bytecode": "0x608060405260405180610160016040528061012f81526020016200517f61012f9139600c90805190602001906200003892919062000b80565b50604051806101a001604052806040518060400160405280600581526020017f466972652000000000000000000000000000000000000000000000000000000081525081526020016040518060400160405280600681526020017f576174657220000000000000000000000000000000000000000000000000000081525081526020016040518060400160405280600681526020017f506c616e7420000000000000000000000000000000000000000000000000000081525081526020016040518060400160405280600581526020017f57696e642000000000000000000000000000000000000000000000000000000081525081526020016040518060400160405280600681526020017f456172746820000000000000000000000000000000000000000000000000000081525081526020016040518060400160405280600881526020017f5468756e6465722000000000000000000000000000000000000000000000000081525081526020016040518060400160405280600681526020017f537061636520000000000000000000000000000000000000000000000000000081525081526020016040518060400160405280600581526020017f54696d652000000000000000000000000000000000000000000000000000000081525081526020016040518060400160405280600681526020017f4368616f7320000000000000000000000000000000000000000000000000000081525081526020016040518060400160405280600781526020017f506f69736f6e200000000000000000000000000000000000000000000000000081525081526020016040518060400160405280600681526020017f4d6574616c20000000000000000000000000000000000000000000000000000081525081526020016040518060400160405280600681526020017f4c6967687420000000000000000000000000000000000000000000000000000081525081526020016040518060400160405280600581526020017f4461726b20000000000000000000000000000000000000000000000000000000815250815250600d90600d6200035492919062000c11565b506040518060e001604052806040518060400160405280600581526020017f46616e672000000000000000000000000000000000000000000000000000000081525081526020016040518060400160405280600581526020017f486f726e2000000000000000000000000000000000000000000000000000000081525081526020016040518060400160405280600681526020017f436c61777320000000000000000000000000000000000000000000000000000081525081526020016040518060400160405280600581526020017f5461696c2000000000000000000000000000000000000000000000000000000081525081526020016040518060400160405280600581526020017f4a6177732000000000000000000000000000000000000000000000000000000081525081526020016040518060400160405280600581526020017f4c6567732000000000000000000000000000000000000000000000000000000081525081526020016040518060400160405280600581526020017f4175726120000000000000000000000000000000000000000000000000000000815250815250600e9060076200050d92919062000c78565b506040518061014001604052806040518060400160405280600481526020017f4c696f6e0000000000000000000000000000000000000000000000000000000081525081526020016040518060400160405280600581526020017f546967657200000000000000000000000000000000000000000000000000000081525081526020016040518060400160405280600681526020017f447261676f6e000000000000000000000000000000000000000000000000000081525081526020016040518060400160405280600481526020017f576f6c660000000000000000000000000000000000000000000000000000000081525081526020016040518060400160405280600381526020017f466f78000000000000000000000000000000000000000000000000000000000081525081526020016040518060400160405280600a81526020017f5268696e6f6365726f730000000000000000000000000000000000000000000081525081526020016040518060400160405280600681526020017f4c697a617264000000000000000000000000000000000000000000000000000081525081526020016040518060400160405280600481526020017f42756c6c0000000000000000000000000000000000000000000000000000000081525081526020016040518060400160405280600881526020017f456c657068616e7400000000000000000000000000000000000000000000000081525081526020016040518060400160405280600581526020017f486f727365000000000000000000000000000000000000000000000000000000815250815250600f90600a6200077892919062000cdf565b503480156200078657600080fd5b506040518060400160405280601281526020017f46616e7461737469634265617374734e465400000000000000000000000000008152506040518060400160405280600581526020017f46424e465400000000000000000000000000000000000000000000000000000081525081600090805190602001906200080b92919062000b80565b5080600190805190602001906200082492919062000b80565b505050620008476200083b620008bb60201b60201c565b620008c360201b60201c565b620008576200098960201b60201c565b600a90805190602001906200086e92919062000b80565b506200087f62000a2360201b60201c565b600b90805190602001906200089692919062000b80565b506000661ff973cafa80009050620008b48162000abd60201b60201c565b5062000ebb565b600033905090565b6000600760009054906101000a900473ffffffffffffffffffffffffffffffffffffffff16905081600760006101000a81548173ffffffffffffffffffffffffffffffffffffffff021916908373ffffffffffffffffffffffffffffffffffffffff1602179055508173ffffffffffffffffffffffffffffffffffffffff168173ffffffffffffffffffffffffffffffffffffffff167f8be0079c531659141344cd1fd0a4f28419497f9722a3daafe3b4186f6b6457e060405160405180910390a35050565b6060600080546200099a9062000e2d565b80601f0160208091040260200160405190810160405280929190818152602001828054620009c89062000e2d565b801562000a195780601f10620009ed5761010080835404028352916020019162000a19565b820191906000526020600020905b815481529060010190602001808311620009fb57829003601f168201915b5050505050905090565b60606001805462000a349062000e2d565b80601f016020809104026020016040519081016040528092919081815260200182805462000a629062000e2d565b801562000ab35780601f1062000a875761010080835404028352916020019162000ab3565b820191906000526020600020905b81548152906001019060200180831162000a9557829003601f168201915b5050505050905090565b62000acd620008bb60201b60201c565b73ffffffffffffffffffffffffffffffffffffffff1662000af362000b5660201b60201c565b73ffffffffffffffffffffffffffffffffffffffff161462000b4c576040517f08c379a000000000000000000000000000000000000000000000000000000000815260040162000b439062000dfa565b60405180910390fd5b8060098190555050565b6000600760009054906101000a900473ffffffffffffffffffffffffffffffffffffffff16905090565b82805462000b8e9062000e2d565b90600052602060002090601f01602090048101928262000bb2576000855562000bfe565b82601f1062000bcd57805160ff191683800117855562000bfe565b8280016001018555821562000bfe579182015b8281111562000bfd57825182559160200191906001019062000be0565b5b50905062000c0d919062000d46565b5090565b82805482825590600052602060002090810192821562000c65579160200282015b8281111562000c6457825182908051906020019062000c5392919062000b80565b509160200191906001019062000c32565b5b50905062000c74919062000d65565b5090565b82805482825590600052602060002090810192821562000ccc579160200282015b8281111562000ccb57825182908051906020019062000cba92919062000b80565b509160200191906001019062000c99565b5b50905062000cdb919062000d65565b5090565b82805482825590600052602060002090810192821562000d33579160200282015b8281111562000d3257825182908051906020019062000d2192919062000b80565b509160200191906001019062000d00565b5b50905062000d42919062000d65565b5090565b5b8082111562000d6157600081600090555060010162000d47565b5090565b5b8082111562000d89576000818162000d7f919062000d8d565b5060010162000d66565b5090565b50805462000d9b9062000e2d565b6000825580601f1062000daf575062000dd0565b601f01602090049060005260206000209081019062000dcf919062000d46565b5b50565b600062000de260208362000e1c565b915062000def8262000e92565b602082019050919050565b6000602082019050818103600083015262000e158162000dd3565b9050919050565b600082825260208201905092915050565b6000600282049050600182168062000e4657607f821691505b6020821081141562000e5d5762000e5c62000e63565b5b50919050565b7f4e487b7100000000000000000000000000000000000000000000000000000000600052602260045260246000fd5b7f4f776e61626c653a2063616c6c6572206973206e6f7420746865206f776e6572600082015250565b6142b48062000ecb6000396000f3fe6080604052600436106101665760003560e01c8063715018a6116100d1578063b88d4fde1161008a578063e2d2c30811610064578063e2d2c30814610543578063e5326ab114610580578063e985e9c5146105ab578063f2fde38b146105e857610166565b8063b88d4fde146104a0578063c6303386146104c9578063c87b56dd1461050657610166565b8063715018a6146103b65780638da5cb5b146103cd57806391b7f5ed146103f857806395d89b4114610421578063a035b1fe1461044c578063a22cb4651461047757610166565b80632f39352a116101235780632f39352a146102805780633bad0d36146102ab5780633f8b69ca146102e857806342842e0e146103135780636352211e1461033c57806370a082311461037957610166565b806301ffc9a71461016b57806306fdde03146101a8578063081812fc146101d3578063095ea7b3146102105780631249c58b1461023957806323b872dd14610257575b600080fd5b34801561017757600080fd5b50610192600480360381019061018d9190612bea565b610611565b60405161019f91906133f5565b60405180910390f35b3480156101b457600080fd5b506101bd6106f3565b6040516101ca9190613410565b60405180910390f35b3480156101df57600080fd5b506101fa60048036038101906101f59190612c3c565b610785565b604051610207919061336c565b60405180910390f35b34801561021c57600080fd5b5061023760048036038101906102329190612bae565b61080a565b005b610241610922565b60405161024e9190613692565b60405180910390f35b34801561026357600080fd5b5061027e60048036038101906102799190612aa8565b610acc565b005b34801561028c57600080fd5b50610295610b2c565b6040516102a29190613410565b60405180910390f35b3480156102b757600080fd5b506102d260048036038101906102cd9190612c3c565b610bba565b6040516102df9190613410565b60405180910390f35b3480156102f457600080fd5b506102fd610cd8565b60405161030a91906133d3565b60405180910390f35b34801561031f57600080fd5b5061033a60048036038101906103359190612aa8565b610eb4565b005b34801561034857600080fd5b50610363600480360381019061035e9190612c3c565b610ed4565b604051610370919061336c565b60405180910390f35b34801561038557600080fd5b506103a0600480360381019061039b9190612a43565b610f86565b6040516103ad9190613692565b60405180910390f35b3480156103c257600080fd5b506103cb61103e565b005b3480156103d957600080fd5b506103e26110c6565b6040516103ef919061336c565b60405180910390f35b34801561040457600080fd5b5061041f600480360381019061041a9190612c3c565b6110f0565b005b34801561042d57600080fd5b50610436611176565b6040516104439190613410565b60405180910390f35b34801561045857600080fd5b50610461611208565b60405161046e9190613692565b60405180910390f35b34801561048357600080fd5b5061049e60048036038101906104999190612b72565b61120e565b005b3480156104ac57600080fd5b506104c760048036038101906104c29190612af7565b611224565b005b3480156104d557600080fd5b506104f060048036038101906104eb9190612c3c565b611286565b6040516104fd9190613410565b60405180910390f35b34801561051257600080fd5b5061052d60048036038101906105289190612c3c565b6113a4565b60405161053a9190613410565b60405180910390f35b34801561054f57600080fd5b5061056a60048036038101906105659190612c3c565b6113b6565b6040516105779190613410565b60405180910390f35b34801561058c57600080fd5b506105956114d4565b6040516105a29190613410565b60405180910390f35b3480156105b757600080fd5b506105d260048036038101906105cd9190612a6c565b611562565b6040516105df91906133f5565b60405180910390f35b3480156105f457600080fd5b5061060f600480360381019061060a9190612a43565b6115f6565b005b60007f80ac58cd000000000000000000000000000000000000000000000000000000007bffffffffffffffffffffffffffffffffffffffffffffffffffffffff1916827bffffffffffffffffffffffffffffffffffffffffffffffffffffffff191614806106dc57507f5b5e139f000000000000000000000000000000000000000000000000000000007bffffffffffffffffffffffffffffffffffffffffffffffffffffffff1916827bffffffffffffffffffffffffffffffffffffffffffffffffffffffff1916145b806106ec57506106eb826116ee565b5b9050919050565b6060600080546107029061395f565b80601f016020809104026020016040519081016040528092919081815260200182805461072e9061395f565b801561077b5780601f106107505761010080835404028352916020019161077b565b820191906000526020600020905b81548152906001019060200180831161075e57829003601f168201915b5050505050905090565b600061079082611758565b6107cf576040517f08c379a00000000000000000000000000000000000000000000000000000000081526004016107c6906135b2565b60405180910390fd5b6004600083815260200190815260200160002060009054906101000a900473ffffffffffffffffffffffffffffffffffffffff169050919050565b600061081582610ed4565b90508073ffffffffffffffffffffffffffffffffffffffff168373ffffffffffffffffffffffffffffffffffffffff161415610886576040517f08c379a000000000000000000000000000000000000000000000000000000000815260040161087d90613652565b60405180910390fd5b8073ffffffffffffffffffffffffffffffffffffffff166108a56117c4565b73ffffffffffffffffffffffffffffffffffffffff1614806108d457506108d3816108ce6117c4565b611562565b5b610913576040517f08c379a000000000000000000000000000000000000000000000000000000000815260040161090a906134f2565b60405180910390fd5b61091d83836117cc565b505050565b600061092e6001611885565b341015610970576040517f08c379a000000000000000000000000000000000000000000000000000000000815260040161096790613632565b60405180910390fd5b600061097c60086118a3565b9050600061098982610bba565b9050600061099683611286565b905060006109a3846113b6565b905060008383836040516020016109bc93929190613225565b60405160208183030381529060405290506000600c8585856040516020016109e79493929190613256565b60405160208183030381529060405290506000610a2c83610a07846118b1565b604051602001610a189291906132e3565b6040516020818303038152906040526118b1565b9050600081604051602001610a41919061334a565b6040516020818303038152906040529050610a5c3389611a6f565b610a668882611a8d565b610a706008611b01565b610a786110c6565b73ffffffffffffffffffffffffffffffffffffffff166108fc349081150290604051600060405180830381858888f19350505050158015610abd573d6000803e3d6000fd5b50879850505050505050505090565b610add610ad76117c4565b82611b17565b610b1c576040517f08c379a0000000000000000000000000000000000000000000000000000000008152600401610b1390613672565b60405180910390fd5b610b27838383611bf5565b505050565b600b8054610b399061395f565b80601f0160208091040260200160405190810160405280929190818152602001828054610b659061395f565b8015610bb25780601f10610b8757610100808354040283529160200191610bb2565b820191906000526020600020905b815481529060010190602001808311610b9557829003601f168201915b505050505081565b60606000610bee610bca84611e51565b604051602001610bda9190613328565b604051602081830303815290604052611ffe565b9050600d8054905081610c019190613a0b565b9050600d8181548110610c3d577f4e487b7100000000000000000000000000000000000000000000000000000000600052603260045260246000fd5b906000526020600020018054610c529061395f565b80601f0160208091040260200160405190810160405280929190818152602001828054610c7e9061395f565b8015610ccb5780601f10610ca057610100808354040283529160200191610ccb565b820191906000526020600020905b815481529060010190602001808311610cae57829003601f168201915b5050505050915050919050565b606060003390506000610cea82610f86565b90506000811415610d6e57600067ffffffffffffffff811115610d36577f4e487b7100000000000000000000000000000000000000000000000000000000600052604160045260246000fd5b604051908082528060200260200182016040528015610d645781602001602082028036833780820191505090505b5092505050610eb1565b60008167ffffffffffffffff811115610db0577f4e487b7100000000000000000000000000000000000000000000000000000000600052604160045260246000fd5b604051908082528060200260200182016040528015610dde5781602001602082028036833780820191505090505b50905060008080610ded612031565b9050600091505b80821015610ea757610e0582610ed4565b73ffffffffffffffffffffffffffffffffffffffff16610e236117c4565b73ffffffffffffffffffffffffffffffffffffffff161415610e945781848481518110610e79577f4e487b7100000000000000000000000000000000000000000000000000000000600052603260045260246000fd5b6020026020010181815250508280610e90906139c2565b9350505b8180610e9f906139c2565b925050610df4565b8396505050505050505b90565b610ecf83838360405180602001604052806000815250611224565b505050565b6000806002600084815260200190815260200160002060009054906101000a900473ffffffffffffffffffffffffffffffffffffffff169050600073ffffffffffffffffffffffffffffffffffffffff168173ffffffffffffffffffffffffffffffffffffffff161415610f7d576040517f08c379a0000000000000000000000000000000000000000000000000000000008152600401610f7490613532565b60405180910390fd5b80915050919050565b60008073ffffffffffffffffffffffffffffffffffffffff168273ffffffffffffffffffffffffffffffffffffffff161415610ff7576040517f08c379a0000000000000000000000000000000000000000000000000000000008152600401610fee90613512565b60405180910390fd5b600360008373ffffffffffffffffffffffffffffffffffffffff1673ffffffffffffffffffffffffffffffffffffffff168152602001908152602001600020549050919050565b6110466117c4565b73ffffffffffffffffffffffffffffffffffffffff166110646110c6565b73ffffffffffffffffffffffffffffffffffffffff16146110ba576040517f08c379a00000000000000000000000000000000000000000000000000000000081526004016110b1906135d2565b60405180910390fd5b6110c46000612042565b565b6000600760009054906101000a900473ffffffffffffffffffffffffffffffffffffffff16905090565b6110f86117c4565b73ffffffffffffffffffffffffffffffffffffffff166111166110c6565b73ffffffffffffffffffffffffffffffffffffffff161461116c576040517f08c379a0000000000000000000000000000000000000000000000000000000008152600401611163906135d2565b60405180910390fd5b8060098190555050565b6060600180546111859061395f565b80601f01602080910402602001604051908101604052809291908181526020018280546111b19061395f565b80156111fe5780601f106111d3576101008083540402835291602001916111fe565b820191906000526020600020905b8154815290600101906020018083116111e157829003601f168201915b5050505050905090565b60095481565b6112206112196117c4565b8383612108565b5050565b61123561122f6117c4565b83611b17565b611274576040517f08c379a000000000000000000000000000000000000000000000000000000000815260040161126b90613672565b60405180910390fd5b61128084848484612275565b50505050565b606060006112ba61129684611e51565b6040516020016112a6919061329f565b604051602081830303815290604052611ffe565b9050600e80549050816112cd9190613a0b565b9050600e8181548110611309577f4e487b7100000000000000000000000000000000000000000000000000000000600052603260045260246000fd5b90600052602060002001805461131e9061395f565b80601f016020809104026020016040519081016040528092919081815260200182805461134a9061395f565b80156113975780601f1061136c57610100808354040283529160200191611397565b820191906000526020600020905b81548152906001019060200180831161137a57829003601f168201915b5050505050915050919050565b60606113af826122d1565b9050919050565b606060006113ea6113c684611e51565b6040516020016113d691906132c1565b604051602081830303815290604052611ffe565b9050600f80549050816113fd9190613a0b565b9050600f8181548110611439577f4e487b7100000000000000000000000000000000000000000000000000000000600052603260045260246000fd5b90600052602060002001805461144e9061395f565b80601f016020809104026020016040519081016040528092919081815260200182805461147a9061395f565b80156114c75780601f1061149c576101008083540402835291602001916114c7565b820191906000526020600020905b8154815290600101906020018083116114aa57829003601f168201915b5050505050915050919050565b600a80546114e19061395f565b80601f016020809104026020016040519081016040528092919081815260200182805461150d9061395f565b801561155a5780601f1061152f5761010080835404028352916020019161155a565b820191906000526020600020905b81548152906001019060200180831161153d57829003601f168201915b505050505081565b6000600560008473ffffffffffffffffffffffffffffffffffffffff1673ffffffffffffffffffffffffffffffffffffffff16815260200190815260200160002060008373ffffffffffffffffffffffffffffffffffffffff1673ffffffffffffffffffffffffffffffffffffffff16815260200190815260200160002060009054906101000a900460ff16905092915050565b6115fe6117c4565b73ffffffffffffffffffffffffffffffffffffffff1661161c6110c6565b73ffffffffffffffffffffffffffffffffffffffff1614611672576040517f08c379a0000000000000000000000000000000000000000000000000000000008152600401611669906135d2565b60405180910390fd5b600073ffffffffffffffffffffffffffffffffffffffff168173ffffffffffffffffffffffffffffffffffffffff1614156116e2576040517f08c379a00000000000000000000000000000000000000000000000000000000081526004016116d990613452565b60405180910390fd5b6116eb81612042565b50565b60007f01ffc9a7000000000000000000000000000000000000000000000000000000007bffffffffffffffffffffffffffffffffffffffffffffffffffffffff1916827bffffffffffffffffffffffffffffffffffffffffffffffffffffffff1916149050919050565b60008073ffffffffffffffffffffffffffffffffffffffff166002600084815260200190815260200160002060009054906101000a900473ffffffffffffffffffffffffffffffffffffffff1673ffffffffffffffffffffffffffffffffffffffff1614159050919050565b600033905090565b816004600083815260200190815260200160002060006101000a81548173ffffffffffffffffffffffffffffffffffffffff021916908373ffffffffffffffffffffffffffffffffffffffff160217905550808273ffffffffffffffffffffffffffffffffffffffff1661183f83610ed4565b73ffffffffffffffffffffffffffffffffffffffff167f8c5be1e5ebec7d5bd14f71427d1e84f3dd0314c0f7b2291e5b200ac8c7c3b92560405160405180910390a45050565b600061189c8260095461242390919063ffffffff16565b9050919050565b600081600001549050919050565b606060008251905060008114156118da5760405180602001604052806000815250915050611a6a565b600060036002836118eb9190613794565b6118f591906137ea565b6004611901919061381b565b905060006020826119129190613794565b67ffffffffffffffff811115611951577f4e487b7100000000000000000000000000000000000000000000000000000000600052604160045260246000fd5b6040519080825280601f01601f1916602001820160405280156119835781602001600182028036833780820191505090505b509050600060405180606001604052806040815260200161423f604091399050600181016020830160005b86811015611a275760038101905062ffffff818a015116603f8160121c168401518060081b905060ff603f83600c1c1686015116810190508060081b905060ff603f8360061c1686015116810190508060081b905060ff603f831686015116810190508060e01b905080845260048401935050506119ae565b506003860660018114611a415760028114611a5157611a5c565b613d3d60f01b6002830352611a5c565b603d60f81b60018303525b508484525050819450505050505b919050565b611a89828260405180602001604052806000815250612439565b5050565b611a9682611758565b611ad5576040517f08c379a0000000000000000000000000000000000000000000000000000000008152600401611acc90613552565b60405180910390fd5b80600660008481526020019081526020016000209080519060200190611afc9291906128cf565b505050565b6001816000016000828254019250508190555050565b6000611b2282611758565b611b61576040517f08c379a0000000000000000000000000000000000000000000000000000000008152600401611b58906134d2565b60405180910390fd5b6000611b6c83610ed4565b90508073ffffffffffffffffffffffffffffffffffffffff168473ffffffffffffffffffffffffffffffffffffffff161480611bdb57508373ffffffffffffffffffffffffffffffffffffffff16611bc384610785565b73ffffffffffffffffffffffffffffffffffffffff16145b80611bec5750611beb8185611562565b5b91505092915050565b8273ffffffffffffffffffffffffffffffffffffffff16611c1582610ed4565b73ffffffffffffffffffffffffffffffffffffffff1614611c6b576040517f08c379a0000000000000000000000000000000000000000000000000000000008152600401611c62906135f2565b60405180910390fd5b600073ffffffffffffffffffffffffffffffffffffffff168273ffffffffffffffffffffffffffffffffffffffff161415611cdb576040517f08c379a0000000000000000000000000000000000000000000000000000000008152600401611cd290613492565b60405180910390fd5b611ce6838383612494565b611cf16000826117cc565b6001600360008573ffffffffffffffffffffffffffffffffffffffff1673ffffffffffffffffffffffffffffffffffffffff1681526020019081526020016000206000828254611d419190613875565b925050819055506001600360008473ffffffffffffffffffffffffffffffffffffffff1673ffffffffffffffffffffffffffffffffffffffff1681526020019081526020016000206000828254611d989190613794565b92505081905550816002600083815260200190815260200160002060006101000a81548173ffffffffffffffffffffffffffffffffffffffff021916908373ffffffffffffffffffffffffffffffffffffffff160217905550808273ffffffffffffffffffffffffffffffffffffffff168473ffffffffffffffffffffffffffffffffffffffff167fddf252ad1be2c89b69c2b068fc378daa952ba7f163c4a11628f55a4df523b3ef60405160405180910390a4505050565b60606000821415611e99576040518060400160405280600181526020017f30000000000000000000000000000000000000000000000000000000000000008152509050611ff9565b600082905060005b60008214611ecb578080611eb4906139c2565b915050600a82611ec491906137ea565b9150611ea1565b60008167ffffffffffffffff811115611f0d577f4e487b7100000000000000000000000000000000000000000000000000000000600052604160045260246000fd5b6040519080825280601f01601f191660200182016040528015611f3f5781602001600182028036833780820191505090505b5090505b60008514611ff257600182611f589190613875565b9150600a85611f679190613a0b565b6030611f739190613794565b60f81b818381518110611faf577f4e487b7100000000000000000000000000000000000000000000000000000000600052603260045260246000fd5b60200101907effffffffffffffffffffffffffffffffffffffffffffffffffffffffffffff1916908160001a905350600a85611feb91906137ea565b9450611f43565b8093505050505b919050565b60008160405160200161201191906131ea565b6040516020818303038152906040528051906020012060001c9050919050565b600061203d60086118a3565b905090565b6000600760009054906101000a900473ffffffffffffffffffffffffffffffffffffffff16905081600760006101000a81548173ffffffffffffffffffffffffffffffffffffffff021916908373ffffffffffffffffffffffffffffffffffffffff1602179055508173ffffffffffffffffffffffffffffffffffffffff168173ffffffffffffffffffffffffffffffffffffffff167f8be0079c531659141344cd1fd0a4f28419497f9722a3daafe3b4186f6b6457e060405160405180910390a35050565b8173ffffffffffffffffffffffffffffffffffffffff168373ffffffffffffffffffffffffffffffffffffffff161415612177576040517f08c379a000000000000000000000000000000000000000000000000000000000815260040161216e906134b2565b60405180910390fd5b80600560008573ffffffffffffffffffffffffffffffffffffffff1673ffffffffffffffffffffffffffffffffffffffff16815260200190815260200160002060008473ffffffffffffffffffffffffffffffffffffffff1673ffffffffffffffffffffffffffffffffffffffff16815260200190815260200160002060006101000a81548160ff0219169083151502179055508173ffffffffffffffffffffffffffffffffffffffff168373ffffffffffffffffffffffffffffffffffffffff167f17307eab39ab6107e8899845ad3d59bd9653f200f220920489ca2b5937696c318360405161226891906133f5565b60405180910390a3505050565b612280848484611bf5565b61228c84848484612499565b6122cb576040517f08c379a00000000000000000000000000000000000000000000000000000000081526004016122c290613432565b60405180910390fd5b50505050565b60606122dc82611758565b61231b576040517f08c379a000000000000000000000000000000000000000000000000000000000815260040161231290613592565b60405180910390fd5b600060066000848152602001908152602001600020805461233b9061395f565b80601f01602080910402602001604051908101604052809291908181526020018280546123679061395f565b80156123b45780601f10612389576101008083540402835291602001916123b4565b820191906000526020600020905b81548152906001019060200180831161239757829003601f168201915b5050505050905060006123c5612630565b90506000815114156123db57819250505061241e565b6000825111156124105780826040516020016123f8929190613201565b6040516020818303038152906040529250505061241e565b61241984612647565b925050505b919050565b60008183612431919061381b565b905092915050565b61244383836126ee565b6124506000848484612499565b61248f576040517f08c379a000000000000000000000000000000000000000000000000000000000815260040161248690613432565b60405180910390fd5b505050565b505050565b60006124ba8473ffffffffffffffffffffffffffffffffffffffff166128bc565b15612623578373ffffffffffffffffffffffffffffffffffffffff1663150b7a026124e36117c4565b8786866040518563ffffffff1660e01b81526004016125059493929190613387565b602060405180830381600087803b15801561251f57600080fd5b505af192505050801561255057506040513d601f19601f8201168201806040525081019061254d9190612c13565b60015b6125d3573d8060008114612580576040519150601f19603f3d011682016040523d82523d6000602084013e612585565b606091505b506000815114156125cb576040517f08c379a00000000000000000000000000000000000000000000000000000000081526004016125c290613432565b60405180910390fd5b805181602001fd5b63150b7a0260e01b7bffffffffffffffffffffffffffffffffffffffffffffffffffffffff1916817bffffffffffffffffffffffffffffffffffffffffffffffffffffffff191614915050612628565b600190505b949350505050565b606060405180602001604052806000815250905090565b606061265282611758565b612691576040517f08c379a000000000000000000000000000000000000000000000000000000000815260040161268890613612565b60405180910390fd5b600061269b612630565b905060008151116126bb57604051806020016040528060008152506126e6565b806126c584611e51565b6040516020016126d6929190613201565b6040516020818303038152906040525b915050919050565b600073ffffffffffffffffffffffffffffffffffffffff168273ffffffffffffffffffffffffffffffffffffffff16141561275e576040517f08c379a000000000000000000000000000000000000000000000000000000000815260040161275590613572565b60405180910390fd5b61276781611758565b156127a7576040517f08c379a000000000000000000000000000000000000000000000000000000000815260040161279e90613472565b60405180910390fd5b6127b360008383612494565b6001600360008473ffffffffffffffffffffffffffffffffffffffff1673ffffffffffffffffffffffffffffffffffffffff16815260200190815260200160002060008282546128039190613794565b92505081905550816002600083815260200190815260200160002060006101000a81548173ffffffffffffffffffffffffffffffffffffffff021916908373ffffffffffffffffffffffffffffffffffffffff160217905550808273ffffffffffffffffffffffffffffffffffffffff16600073ffffffffffffffffffffffffffffffffffffffff167fddf252ad1be2c89b69c2b068fc378daa952ba7f163c4a11628f55a4df523b3ef60405160405180910390a45050565b600080823b905060008111915050919050565b8280546128db9061395f565b90600052602060002090601f0160209004810192826128fd5760008555612944565b82601f1061291657805160ff1916838001178555612944565b82800160010185558215612944579182015b82811115612943578251825591602001919060010190612928565b5b5090506129519190612955565b5090565b5b8082111561296e576000816000905550600101612956565b5090565b6000612985612980846136d2565b6136ad565b90508281526020810184848401111561299d57600080fd5b6129a884828561391d565b509392505050565b6000813590506129bf816141e2565b92915050565b6000813590506129d4816141f9565b92915050565b6000813590506129e981614210565b92915050565b6000815190506129fe81614210565b92915050565b600082601f830112612a1557600080fd5b8135612a25848260208601612972565b91505092915050565b600081359050612a3d81614227565b92915050565b600060208284031215612a5557600080fd5b6000612a63848285016129b0565b91505092915050565b60008060408385031215612a7f57600080fd5b6000612a8d858286016129b0565b9250506020612a9e858286016129b0565b9150509250929050565b600080600060608486031215612abd57600080fd5b6000612acb868287016129b0565b9350506020612adc868287016129b0565b9250506040612aed86828701612a2e565b9150509250925092565b60008060008060808587031215612b0d57600080fd5b6000612b1b878288016129b0565b9450506020612b2c878288016129b0565b9350506040612b3d87828801612a2e565b925050606085013567ffffffffffffffff811115612b5a57600080fd5b612b6687828801612a04565b91505092959194509250565b60008060408385031215612b8557600080fd5b6000612b93858286016129b0565b9250506020612ba4858286016129c5565b9150509250929050565b60008060408385031215612bc157600080fd5b6000612bcf858286016129b0565b9250506020612be085828601612a2e565b9150509250929050565b600060208284031215612bfc57600080fd5b6000612c0a848285016129da565b91505092915050565b600060208284031215612c2557600080fd5b6000612c33848285016129ef565b91505092915050565b600060208284031215612c4e57600080fd5b6000612c5c84828501612a2e565b91505092915050565b6000612c7183836131cc565b60208301905092915050565b612c86816138a9565b82525050565b6000612c9782613728565b612ca18185613756565b9350612cac83613703565b8060005b83811015612cdd578151612cc48882612c65565b9750612ccf83613749565b925050600181019050612cb0565b5085935050505092915050565b612cf3816138bb565b82525050565b6000612d0482613733565b612d0e8185613767565b9350612d1e81856020860161392c565b612d2781613af8565b840191505092915050565b6000612d3d8261373e565b612d478185613778565b9350612d5781856020860161392c565b612d6081613af8565b840191505092915050565b6000612d768261373e565b612d808185613789565b9350612d9081856020860161392c565b80840191505092915050565b60008154612da98161395f565b612db38186613789565b94506001821660008114612dce5760018114612ddf57612e12565b60ff19831686528186019350612e12565b612de885613713565b60005b83811015612e0a57815481890152600182019150602081019050612deb565b838801955050505b50505092915050565b6000612e28603283613778565b9150612e3382613b09565b604082019050919050565b6000612e4b602683613778565b9150612e5682613b58565b604082019050919050565b6000612e6e601c83613778565b9150612e7982613ba7565b602082019050919050565b6000612e91600683613789565b9150612e9c82613bd0565b600682019050919050565b6000612eb4602483613778565b9150612ebf82613bf9565b604082019050919050565b6000612ed7601983613778565b9150612ee282613c48565b602082019050919050565b6000612efa602c83613778565b9150612f0582613c71565b604082019050919050565b6000612f1d600d83613789565b9150612f2882613cc0565b600d82019050919050565b6000612f40603883613778565b9150612f4b82613ce9565b604082019050919050565b6000612f63602a83613778565b9150612f6e82613d38565b604082019050919050565b6000612f86602983613778565b9150612f9182613d87565b604082019050919050565b6000612fa9602e83613778565b9150612fb482613dd6565b604082019050919050565b6000612fcc600483613789565b9150612fd782613e25565b600482019050919050565b6000612fef600283613789565b9150612ffa82613e4e565b600282019050919050565b6000613012606a83613789565b915061301d82613e77565b606a82019050919050565b6000613035602083613778565b915061304082613f12565b602082019050919050565b6000613058603183613778565b915061306382613f3b565b604082019050919050565b600061307b602c83613778565b915061308682613f8a565b604082019050919050565b600061309e602083613778565b91506130a982613fd9565b602082019050919050565b60006130c1602983613778565b91506130cc82614002565b604082019050919050565b60006130e4602f83613778565b91506130ef82614051565b604082019050919050565b6000613107600a83613789565b9150613112826140a0565b600a82019050919050565b600061312a601183613778565b9150613135826140c9565b602082019050919050565b600061314d600783613789565b9150613158826140f2565b600782019050919050565b6000613170602183613778565b915061317b8261411b565b604082019050919050565b6000613193601d83613789565b915061319e8261416a565b601d82019050919050565b60006131b6603183613778565b91506131c182614193565b604082019050919050565b6131d581613913565b82525050565b6131e481613913565b82525050565b60006131f68284612d6b565b915081905092915050565b600061320d8285612d6b565b91506132198284612d6b565b91508190509392505050565b60006132318286612d6b565b915061323d8285612d6b565b91506132498284612d6b565b9150819050949350505050565b60006132628287612d9c565b915061326e8286612d6b565b915061327a8285612d6b565b91506132868284612d6b565b915061329182612f10565b915081905095945050505050565b60006132aa82612e84565b91506132b68284612d6b565b915081905092915050565b60006132cc82612fbf565b91506132d88284612d6b565b915081905092915050565b60006132ee826130fa565b91506132fa8285612d6b565b915061330582613005565b91506133118284612d6b565b915061331c82612fe2565b91508190509392505050565b600061333382613140565b915061333f8284612d6b565b915081905092915050565b600061335582613186565b91506133618284612d6b565b915081905092915050565b60006020820190506133816000830184612c7d565b92915050565b600060808201905061339c6000830187612c7d565b6133a96020830186612c7d565b6133b660408301856131db565b81810360608301526133c88184612cf9565b905095945050505050565b600060208201905081810360008301526133ed8184612c8c565b905092915050565b600060208201905061340a6000830184612cea565b92915050565b6000602082019050818103600083015261342a8184612d32565b905092915050565b6000602082019050818103600083015261344b81612e1b565b9050919050565b6000602082019050818103600083015261346b81612e3e565b9050919050565b6000602082019050818103600083015261348b81612e61565b9050919050565b600060208201905081810360008301526134ab81612ea7565b9050919050565b600060208201905081810360008301526134cb81612eca565b9050919050565b600060208201905081810360008301526134eb81612eed565b9050919050565b6000602082019050818103600083015261350b81612f33565b9050919050565b6000602082019050818103600083015261352b81612f56565b9050919050565b6000602082019050818103600083015261354b81612f79565b9050919050565b6000602082019050818103600083015261356b81612f9c565b9050919050565b6000602082019050818103600083015261358b81613028565b9050919050565b600060208201905081810360008301526135ab8161304b565b9050919050565b600060208201905081810360008301526135cb8161306e565b9050919050565b600060208201905081810360008301526135eb81613091565b9050919050565b6000602082019050818103600083015261360b816130b4565b9050919050565b6000602082019050818103600083015261362b816130d7565b9050919050565b6000602082019050818103600083015261364b8161311d565b9050919050565b6000602082019050818103600083015261366b81613163565b9050919050565b6000602082019050818103600083015261368b816131a9565b9050919050565b60006020820190506136a760008301846131db565b92915050565b60006136b76136c8565b90506136c38282613991565b919050565b6000604051905090565b600067ffffffffffffffff8211156136ed576136ec613ac9565b5b6136f682613af8565b9050602081019050919050565b6000819050602082019050919050565b60008190508160005260206000209050919050565b600081519050919050565b600081519050919050565b600081519050919050565b6000602082019050919050565b600082825260208201905092915050565b600082825260208201905092915050565b600082825260208201905092915050565b600081905092915050565b600061379f82613913565b91506137aa83613913565b9250827fffffffffffffffffffffffffffffffffffffffffffffffffffffffffffffffff038211156137df576137de613a3c565b5b828201905092915050565b60006137f582613913565b915061380083613913565b9250826138105761380f613a6b565b5b828204905092915050565b600061382682613913565b915061383183613913565b9250817fffffffffffffffffffffffffffffffffffffffffffffffffffffffffffffffff048311821515161561386a57613869613a3c565b5b828202905092915050565b600061388082613913565b915061388b83613913565b92508282101561389e5761389d613a3c565b5b828203905092915050565b60006138b4826138f3565b9050919050565b60008115159050919050565b60007fffffffff0000000000000000000000000000000000000000000000000000000082169050919050565b600073ffffffffffffffffffffffffffffffffffffffff82169050919050565b6000819050919050565b82818337600083830152505050565b60005b8381101561394a57808201518184015260208101905061392f565b83811115613959576000848401525b50505050565b6000600282049050600182168061397757607f821691505b6020821081141561398b5761398a613a9a565b5b50919050565b61399a82613af8565b810181811067ffffffffffffffff821117156139b9576139b8613ac9565b5b80604052505050565b60006139cd82613913565b91507fffffffffffffffffffffffffffffffffffffffffffffffffffffffffffffffff821415613a00576139ff613a3c565b5b600182019050919050565b6000613a1682613913565b9150613a2183613913565b925082613a3157613a30613a6b565b5b828206905092915050565b7f4e487b7100000000000000000000000000000000000000000000000000000000600052601160045260246000fd5b7f4e487b7100000000000000000000000000000000000000000000000000000000600052601260045260246000fd5b7f4e487b7100000000000000000000000000000000000000000000000000000000600052602260045260246000fd5b7f4e487b7100000000000000000000000000000000000000000000000000000000600052604160045260246000fd5b6000601f19601f8301169050919050565b7f4552433732313a207472616e7366657220746f206e6f6e20455243373231526560008201527f63656976657220696d706c656d656e7465720000000000000000000000000000602082015250565b7f4f776e61626c653a206e6577206f776e657220697320746865207a65726f206160008201527f6464726573730000000000000000000000000000000000000000000000000000602082015250565b7f4552433732313a20746f6b656e20616c7265616479206d696e74656400000000600082015250565b7f776561706f6e0000000000000000000000000000000000000000000000000000600082015250565b7f4552433732313a207472616e7366657220746f20746865207a65726f2061646460008201527f7265737300000000000000000000000000000000000000000000000000000000602082015250565b7f4552433732313a20617070726f766520746f2063616c6c657200000000000000600082015250565b7f4552433732313a206f70657261746f7220717565727920666f72206e6f6e657860008201527f697374656e7420746f6b656e0000000000000000000000000000000000000000602082015250565b7f3c2f746578743e3c2f7376673e00000000000000000000000000000000000000600082015250565b7f4552433732313a20617070726f76652063616c6c6572206973206e6f74206f7760008201527f6e6572206e6f7220617070726f76656420666f7220616c6c0000000000000000602082015250565b7f4552433732313a2062616c616e636520717565727920666f7220746865207a6560008201527f726f206164647265737300000000000000000000000000000000000000000000602082015250565b7f4552433732313a206f776e657220717565727920666f72206e6f6e657869737460008201527f656e7420746f6b656e0000000000000000000000000000000000000000000000602082015250565b7f45524337323155524953746f726167653a2055524920736574206f66206e6f6e60008201527f6578697374656e7420746f6b656e000000000000000000000000000000000000602082015250565b7f72616e6b00000000000000000000000000000000000000000000000000000000600082015250565b7f227d000000000000000000000000000000000000000000000000000000000000600082015250565b7f222c20226465736372697074696f6e223a20224120686967686c79206163636c60008201527f61696d656420636f6c6c656374696f6e2046616e74617374696320576172726960208201527f6f7273222c2022696d616765223a2022646174613a696d6167652f7376672b7860408201527f6d6c3b6261736536342c00000000000000000000000000000000000000000000606082015250565b7f4552433732313a206d696e7420746f20746865207a65726f2061646472657373600082015250565b7f45524337323155524953746f726167653a2055524920717565727920666f722060008201527f6e6f6e6578697374656e7420746f6b656e000000000000000000000000000000602082015250565b7f4552433732313a20617070726f76656420717565727920666f72206e6f6e657860008201527f697374656e7420746f6b656e0000000000000000000000000000000000000000602082015250565b7f4f776e61626c653a2063616c6c6572206973206e6f7420746865206f776e6572600082015250565b7f4552433732313a207472616e73666572206f6620746f6b656e2074686174206960008201527f73206e6f74206f776e0000000000000000000000000000000000000000000000602082015250565b7f4552433732314d657461646174613a2055524920717565727920666f72206e6f60008201527f6e6578697374656e7420746f6b656e0000000000000000000000000000000000602082015250565b7f7b226e616d65223a202200000000000000000000000000000000000000000000600082015250565b7f56616c75652062656c6f77207072696365000000000000000000000000000000600082015250565b7f656c656d656e7400000000000000000000000000000000000000000000000000600082015250565b7f4552433732313a20617070726f76616c20746f2063757272656e74206f776e6560008201527f7200000000000000000000000000000000000000000000000000000000000000602082015250565b7f646174613a6170706c69636174696f6e2f6a736f6e3b6261736536342c000000600082015250565b7f4552433732313a207472616e736665722063616c6c6572206973206e6f74206f60008201527f776e6572206e6f7220617070726f766564000000000000000000000000000000602082015250565b6141eb816138a9565b81146141f657600080fd5b50565b614202816138bb565b811461420d57600080fd5b50565b614219816138c7565b811461422457600080fd5b50565b61423081613913565b811461423b57600080fd5b5056fe4142434445464748494a4b4c4d4e4f505152535455565758595a6162636465666768696a6b6c6d6e6f707172737475767778797a303132333435363738392b2fa26469706673582212202faa1a65b6025868f05e01cd9e9609e5681d6ea122046e318756b9c8e53cc42c64736f6c634300080400333c73766720786d6c6e733d27687474703a2f2f7777772e77332e6f72672f323030302f73766727207072657365727665417370656374526174696f3d27784d696e594d696e206d656574272076696577426f783d273020302033353020333530273e3c7374796c653e2e62617365207b2066696c6c3a2077686974653b20666f6e742d66616d696c793a2073657269663b20666f6e742d73697a653a20323470783b207d3c2f7374796c653e3c726563742077696474683d273130302527206865696768743d2731303025272066696c6c3d27626c61636b27202f3e3c7465787420783d273530252720793d273530252720636c6173733d27626173652720646f6d696e616e742d626173656c696e653d276d6964646c652720746578742d616e63686f723d276d6964646c65273e",
  "linkReferences": {},
  "deployedLinkReferences": {}
}